:100000000C943F040C9486040C9486040C9486048F
:100010000C9486040C9486040C9486040C94860438
:100020000C9486040C9486040C94E8240C94BB2550
:100030000C94FB1B0C9486040C9486040C9486048C
:100040000C9486040C9486040C9486040C94860408
:100050000C9486040C945C1C0C9486040C9486040A
:100060000C9486040C9486040C9486040C948604E8
:100070000C9486040C9486040C9486040C948604D8
:100080000C9486040C9486040C9486040C948604C8
:100090000C9486040C9486040C9486040C948604B8
:1000A0000C9486040C9486040C94860401080208BF
:1000B000010F020F011602160108020801E10133C7
:1000C000023302E10001080208010F020F010C02D5
:1000D0000C0109020900010C020C010902090001CE
:1000E0000F020F010802080111021101E1012602AD
:1000F000260127022702E10001150215010402046E
:1001000001110211010A020A0108020801E1012697
:1001100002260127022702E1000109020901120259
:100120001201150215012C022C010C020C01110206
:1001300011000113021301150215010C020C01112B
:1001400002110117021701E10126022601270227E9
:1001500002E100010C020C01100210011302130154
:10016000120212011502150117021700012F022FAA
:10017000013002300001E101260226012702270298
:10018000E10001340234013402340001E1013302A0
:100190003302E100012C022C012C022C012C022C38
:1001A000012C022C000030013002300330043005F5
:1001B0003006300730083009300A300B300C305828
:1001C00000357059005A005B005200015162006313
:1001D00000500051004F003A003B003C003D003E03
:1001E000003F00400041004200430044004500A899
:1001F00000AA00A900AE00AD00AC00AB000100E514
:1002000000E600E7006500E40001000100010001D4
:1002100000010001000100010001000100010001D6
:1002200000010001000100010001000100010001C6
:1002300000010001000100010001000100010001B6
:1002400000010001000100010001000100010001A6
:1004C0000001000100643214643214783C1E1E14D2
:1004D0000A050000000001010102020304050506EF
:1004E00007090A0B0C0E0F1112141517191B1D1FEB
:1004F000212325282A2C2F313436393B3E414346CF
:10050000494C4F5255585A5D6164676A6D707376F5
:10051000797C7F8386898C8F9295989B9EA2A5A7D4
:10052000AAADB0B3B6B9BCBEC1C4C6C9CBCED0D3D8
:10053000D5D7DADCDEE0E2E4E6E8EAEBEDEEF0F176
:10054000F3F4F5F6F8F9FAFAFBFCFDFDFEFEFEFF0A
:10055000FFFFFFFFFFFFFEFEFEFDFDFCFBFAFAF9C9
:10056000F8F6F5F4F3F1F0EEEDEBEAE8E6E4E2E0BC
:10057000DEDCDAD7D5D3D0CECBC9C6C4C1BEBCB9B8
:10058000B6B3B0ADAAA7A5A29E9B9895928F8C8971
:100590008683807C797673706D6A6764615D5A5872
:1005A00055524F4C494643413E3B393634312F2C4E
:1005B0002A282523211F1D1B1917151412110F0E90
:1005C0000C0B0A09070605050403020201010100DC
:1005D0000000000000000001010101010101010112
:1005E00002020202020202020203030303030303E4
:1005F00003040404040404050505050506060606AF
:100600000607070707080808080909090A0A0A0A65
:100610000B0B0B0C0C0C0D0D0D0E0E0F0F0F101005
:100620001111111212131314141515161617171889
:100630001819191A1A1B1C1C1D1D1E1F1F202021F2
:1006400022222324252526272728292A2B2B2C2D37
:100650002E2F2F30313233343536363738393A3B56
:100660003C3D3E3F4041424344464748494A4B4C4B
:100670004D4F50515253555657585A5B5C5E5F6010
:100680006263646667696A6C6D6E707173747678A4
:10069000797B7C7E8081838486888A8B8D8F919202
:1006A0009496989A9B9D9FA1A3A5A7A9ABADAFB126
:1006B000B3B5B7B9BBBDBFC1C4C6C8CACCCFD1D30F
:1006C000D6D8DADCDFE1E4E6E8EBEDF0F2F5F7FAB4
:1006D000FCFF12036B006500790062006F0061008F
:1006E000720064000000160371006D006B00620070
:1006F000750069006C00640065007200000004036E
:10070000090409026D00040100A0FA0904000001B7
:1007100003010100092111010001224000070581A8
:100720000308000A09040100010301020009211164
:10073000010001224D000705820308000A09040296
:100740000001030000000921110100012236000709
:1007500005830308000A09040300010300000009DF
:100760002111010001223900070584032000011234
:1007700001100100000008EDFE60600100010200B0
:100780000105010906A101050719E029E715002562
:10079000019508750181020508190129059505755E
:1007A0000191029501750391010507190029F715BB
:1007B00000250195F875018102C005010980A1019C
:1007C00085021601002603001A81002A8300751095
:1007D00095018100C0050C0901A1018503160100E6
:1007E000269C021A01002A9C02751095018100C006
:1007F00005010902A1010901A10005091901290545
:10080000150025019505750181029501750381018A
:100810000501093009311581257F9502750881068A
:1008200009381581257F950175088106050C0A3860
:10083000021581257F950175088106C0C005010953
:1008400006A101050719E029E7150025019508759E
:100850000181029501750881010508190129059595
:10086000057501910295017503910105071900298C
:10087000FF150026FF00950675088100C0001124B1
:100880001FBECFEFDAE0DEBFCDBF04B603FE27C048
:100890008091AE029091AF02A091B002B091B102EE
:1008A0008730904BA740B04BD1F41092AE0210921B
:1008B000AF021092B0021092B10214BE84B7877FCB
:1008C00084BF0FB6F894A8958091600088618093EA
:1008D0006000109260000FBEE0E0F8E3099511E0BF
:1008E000A0E0B1E0E0EAF2E502C005900D92A2338B
:1008F000B107D9F722E0A2E3B1E001C01D92AE3A00
:10090000B207E1F70E943C220C940C290C940000E1
:10091000DC016D3008F04AC0E62FF0E0E25FF64DF2
:1009200012968C910C94BE28882309F43FC084E968
:1009300091E008958823D1F18BE891E00895882310
:10094000A9F182E891E00895882381F185E791E09B
:100950000895882359F18CE691E00895882331F1B8
:1009600083E591E00895882309F182E391E00895F9
:100970008823E1F089E191E008958823B9F088EFB8
:1009800090E00895882391F08FED90E008958823FA
:1009900069F086ED90E00895882341F085EC90E0C1
:1009A0000895882319F08CEA90E0089590E080E0A3
:1009B00008950895089581E00895089581E00895C7
:1009C0000C94DB040E9444142FEF84E39CE021503C
:1009D00080409040E1F700C000000C947F1CEF9233
:1009E000FF920F931F93CF93DF937C01DC010D9156
:1009F0001C91119780917401811143C012968C91C2
:100A00008823D1F1C8010E94CB19C82F682FC801D3
:100A10000E947219B8018C2F0E945A06EC01B7018E
:100A20000E94E004882309F468C0B701CE010E9447
:100A30006308882309F461C0CE33B0E7DB0770F4A4
:100A4000C433E0E7DE0710F5C130F0E7DF0709F453
:100A50005CC050F5C115D04709F44AC081E08093CD
:100A6000340180933501C701DF91CF911F910F9120
:100A7000FF90EF900C94DE04C8010E94A119C82FCA
:100A8000C9CFC8010E94CB19B801C6CFFE01E553FA
:100A9000F047D70112968C91E930F10508F040C07B
:100AA000E55EF64D0C94BE28CE01825090474397E8
:100AB000A8F6F70182818823B1F20E948D1B811173
:100AC00002C00E946C1B0E94AA1B90E09093A0029F
:100AD00080939F02FE01E350F04780919F02816066
:100AE000E231F10508F047C0EC5DF64D0C94BE28EC
:100AF000F701828181110E94E20480E0DF91CF91B1
:100B00001F910F91FF90EF900895D70112968C914D
:100B1000882399F38091EE0181608093EE01EDCFFF
:100B2000882359F30E94AE0CE8CF882331F30E944A
:100B3000A40CE3CF882309F30E94810BDECF882326
:100B4000E1F20E94990BD9CF8823B9F20E94B80B29
:100B5000D4CF882391F20E94D00BCFCF882369F2A3
:100B60000E94E80BCACF882341F20E94000CC5CF37
:100B700080919F02826080939F0280919F020E94D9
:100B8000AE1B0E944414B9CF80919F028460F3CFC2
:100B900080919F028860EFCF80919F028061EBCFB0
:100BA00080919F028062E7CF80919F028064E3CFB3
:100BB00080919F028068DFCF80919F028C60DBCFA5
:100BC00080919F028E7FD7CF80919F028D7FD3CF60
:100BD00080919F028B7FCFCF80919F02877FCBCF69
:100BE00080919F028F7EC7CF80919F028F7DC3CF60
:100BF00080919F028F7BBFCF80919F028F77BBCF69
:100C000080919F02837FB7CF90919F02892F97FB9E
:100C100087F98058B0CF882361F0109234010E9488
:100C20002B1C909333018093320182E00E94A91122
:100C300064CF8091340181110FC080913201909175
:100C400033010E94371C883C910530F486E20E94F3
:100C50007E1086E20E945A1182E00E94B0114DCFB0
:100C6000882351F0109235010E942B1C9093330180
:100C70008093320180E2DACF8091350181110FC07B
:100C800080913201909133010E94371C883C91057C
:100C900030F487E20E947E1087E20E945A1180E2BF
:100CA000DCCF0C94B2080C94B4080C94DD040C94C2
:100CB00055060895972F70E025E0929F600D711DF5
:100CC0001124FB0199E1899FE00DF11D1124EE0F24
:100CD000FF1FEB55FE4F859194910895FC01EE0F97
:100CE000FF1FEB53FB4F8591949108950E945A0684
:100CF0000E94E7079C01811540E4940708F097C023
:100D0000211580E3380708F0FAC0203E310508F0CD
:100D100074C0203C310508F0E5C0283A310588F45C
:100D2000253A310508F0E2C02130310509F477C0D9
:100D3000C9010497813A910508F471C030E020E0C0
:100D40006EC0C901885A91094597C0F7283A310504
:100D500009F4FEC0293A310509F4FDC02A3A3105EB
:100D600009F4FCC02B3A310509F4FBC02C3A3105DB
:100D700009F4FAC02B3B310509F4F9C02C3B3105CD
:100D800009F4F8C02D3A310509F4F7C0203B3105CC
:100D900009F4F6C02E3A310509F4F5C02F3A3105B1
:100DA00009F4F4C0213B310509F4F3C0223B3105BD
:100DB00009F4F2C0233B310509F4F1C0243B3105AD
:100DC00009F4F0C0253B310509F4EFC0263B31059D
:100DD00009F4EEC0273B310509F4EDC0283B31058D
:100DE00009F4ECC0293B310509F4EBC02A3B31057D
:100DF00009F4EAC020E034E412C0211590E239077A
:100E000080F42F3F310509F050F4283E310538F0C9
:100E1000C901805F91093065409708F08FCFC90103
:100E20000895C9019F700E946E069C01F8CF81153C
:100E3000944508F041C0211583E5380708F06AC0E1
:100E4000211592E5390738F5211541E5340708F0F9
:100E50005CC0211580E5380708F454C0C90134E0AE
:100E6000969587953A95E1F78370422F469546957A
:100E7000437090E2499FA0011124582B822F837068
:100E800021E030E002C0220F331F8A95E2F7242BC5
:100E9000352B3C68C4CFC9018370992741E050E0ED
:100EA00002C0440F551F8A95E2F72695269580E2E9
:100EB000289F90011124EBCF211596E5390748F4BE
:100EC000922F882721153545C8F59C01246F306A7B
:100ED000A6CFC90190563F708115904108F02ECFE2
:100EE00030629DCFC901805C91099DCF253A3105C3
:100EF00049F1263A310549F522E830E490CF33270D
:100F0000306C8DCF3F70306A8ACF322F2227216F0D
:100F1000306A85CFC9018370992741E050E002C053
:100F2000440F551F8A95E2F72695269580E2289F63
:100F300090011124242B352B3A6871CF88279F719B
:100F40009C01CECF21E830E46ACF23E830E467CFBC
:100F500022EE34E464CF29EE34E461CF2AEE34E4A7
:100F60005ECF25EB34E45BCF26EB34E458CF23EBA4
:100F700034E455CF24EB34E452CF27EB34E44FCFA5
:100F80002CEC34E44CCF2DEC34E449CF23E835E4A9
:100F900046CF2AE835E443CF22E935E440CF24E9BF
:100FA00035E43DCF21E236E43ACF23E236E437CFD1
:100FB00024E236E434CF25E236E431CF26E236E4CB
:100FC0002ECF27E236E42BCF2AE236E428CF803E2C
:100FD000910581F1C8F48133910509F462C048F4A8
:100FE0008932910509F456C08A32910509F460C02E
:100FF000089589339105B9F082389105A1F08533C0
:10100000910509F440C00895863E910561F138F4D8
:10101000823E9105B1F0833E9105E1F00895873E4F
:10102000910551F1089520919F022370D9F080EE2F
:1010300090E0089520919F0220FF14C089E390E082
:10104000089520919F0222FF0DC024FD09C083EE68
:1010500090E0089520919F0222FD31C024FF02C03C
:1010600090E080E0089520919F0223FFFBCF24FDB4
:10107000F7CF87EE90E0089520919F0223FFEECFF7
:1010800086EE90E0089520919F0225FFEBCF89E244
:1010900090E0089520919F0225FFE4CF85E390E042
:1010A000089520919F0226FFDDCF8AE290E0089507
:1010B00020919F0226FFD6CF81E390E0089582EE33
:1010C00090E0089508950F931F93CF938C01FB0137
:1010D0008281811106C0C1E08C2FCF911F910F91A9
:1010E0000895C0914301C11125C00531104799F7FA
:1010F0000E94620881E0809343010E942B1C909320
:1011000042018093410110923601109238011092F1
:10111000370110923A011092390110923C0110925D
:101120003B0110923E0110923D011092400110923D
:101130003F01D2CF80914101909142010E94371C22
:10114000883C910540F680913601E82FF0E0EE0FE3
:10115000FF1FE95CFE4F118300838F5F8093360190
:10116000C0E0BACF0C94D9040C94DA04CF93DF9387
:1011700085B7806885BF85B7806885BFA9E1B1E084
:101180004EE151E0C1E0D0E08D91E82FE295EF70A3
:10119000F0E061A18F709E0101C0220F8A95EAF7ED
:1011A000922F9095962391A382A1822B82A34A1716
:1011B0005B0751F7A4E1B1E061E070E08D91E82FA9
:1011C000E295EF70F0E041A18F709B0101C0220F0A
:1011D0008A95EAF7922F9095942391A382A1822B6E
:1011E00082A381E0A931B80749F710924901109212
:1011F000440110924A011092450110924B01109245
:10120000460110924C011092470110924D0110922C
:101210004801DF91CF910C9451066F927F928F928B
:101220009F92AF92BF92CF92DF92EF92FF920F9375
:101230001F93CF93DF9334E4632E31E0732E49E1A3
:10124000E42E41E0F42E01E010E0DD24D394E3012C
:10125000C9903E01DE011E92F70181917F01E82FC6
:10126000E295EF70F0E091A18F70A80101C0440FEA
:101270008A95EAF7892F842B81A382A1842E8094FA
:10128000882182A380EA8A95F1F764E171E090E019
:1012900080E0EB013991BE01A32EA2942FE0A2229F
:1012A000B12CE50128A19C903F70580101C0AA0C07
:1012B0003A95EAF7A22220E031F4202F082E01C04F
:1012C000220F0A94EAF729292C930196853091057B
:1012D00001F781A1882181A382A1482B42A38C918F
:1012E000C81641F0D0924E010E942B1C90935001E1
:1012F00080934F01D9E46D16D1E07D0609F0A7CFA8
:1013000080914E018823F1F080914F01909150011E
:101310000E94371C0697B0F08091440180934901E8
:101320008091450180934A018091460180934B0151
:101330008091470180934C018091480180934D0139
:1013400010924E010E94530681E0DF91CF911F91D0
:101350000F91FF90EF90DF90CF90BF90AF909F9054
:101360008F907F906F900895E82FF0E0E75BFE4F3D
:101370008081089508959C01CB016BB1542F509545
:1013800056236BB1462B6FB7F894820F931F281723
:10139000390711F46FBF0895F90171919F01E8E0D9
:1013A0004BB9000000C077FF5BB9770F000000C0A9
:1013B00000C000C05BB900C0EA9591F7E8CFFC011E
:1013C0009AB1942B9AB99B01220F331F620F731F9E
:1013D000CF010E94BB0987EC90E00197F1F700C0B4
:1013E0000000089540E20C94DF09AF92BF92CF92C3
:1013F000DF92EF92FF920F931F93CF93DF937C01C5
:10140000E901842F242F662309F43FC0C42ED12C78
:101410008FEF90E0861B9109489F8001499F100D36
:101420001124212F812F9927C81AD90A9CE3A92EAC
:10143000B12CC701B5010E949628FB01BC01C69ED4
:10144000C001C79E900DD69E900D1124B5010E943B
:101450009628E330F10509F443C080EFE816F10463
:1014600068F4E130F10591F13297A1F18CE3E816CF
:10147000F10440F180E020E040E007C0E430F105F5
:1014800099F1842F861B3597A9F7E42FF0E0EE52EF
:10149000FA4F4491E22FF0E0EE52FA4F9491E82F88
:1014A000F0E0EE52FA4FE49149839883EA83DF91AA
:1014B000CF911F910F91FF90EF90DF90CF90BF9051
:1014C000AF900895812F262F210FDFCF812F242F5A
:1014D000461BDBCF862F810FE42F412F2E2FD5CF38
:1014E000E42FE61B842FF9CF842F462F410FCDCF59
:1014F00088E090E00C94CC28AB01BC0188E090E03F
:101500000C94EA28CF93DF9300D000D0CDB7DEB79C
:10151000EBE1F2E083E0808311828FEF82838383AB
:1015200080911B0290911C02A0911D02B0911E029D
:1015300089839A83AB83BC83BC01CD010F900F904C
:101540000F900F90DF91CF910C947C0A80911B0239
:10155000E3E2F2E080FF06C068E270E083E292E03E
:101560000C94F209118210821282339682E0EB39D8
:10157000F807C1F7F1CFE3E2F2E0818360834283B1
:10158000339692E0EB39F907C1F70C94A60AEF9273
:10159000FF920F931F93CF93DF9300D00F92CDB79D
:1015A000DEB7182FE92EF62E042F80911B029091A2
:1015B0001C02A0911D02B0911E0280931F02909305
:1015C0002002A0932102B093220280911B0280FF8F
:1015D0001FC09E012F5F3F4F812F9E2D0E94F50956
:1015E00080911F0210FB87F980931F02169580914E
:1015F00020028078182BE0FA17F910932002F0925D
:101600002102009322024B8169818A810E94BB0AD8
:101610000F900F900F90DF91CF911F910F91FF903E
:10162000EF9008950F931F93CF93DF9300D000D0D6
:101630000F92CDB7DEB789839D83062F142F80913B
:101640001B0280FF54C0982F9E77923091F58981BC
:101650009D810E94C70A80911B02B981B0FB87F966
:1016600080931B02B69580911C028078B82B8D81E7
:1016700080FBB7F9B0931C0200931D0210931E0269
:1016800080911B0290911C02A0911D02B0911E023C
:1016900089839A83AB83BC83BC01CD010F900F90EB
:1016A0000F900F900F90DF91CF911F910F910C949D
:1016B0007C0A982F96959F732EE3290F2F73243061
:1016C00018F410911E02C7CF965C9F73993018F6DC
:1016D000881F8827881F90911C029D83990F982B43
:1016E0009983AD81A7FBAA27A0F9AD83B4CF0F9052
:1016F0000F900F900F900F90DF91CF911F910F914E
:101700000895EBE1F2E02081221F2227221F309171
:101710001C02432F440F842F822B37FB992790F90B
:10172000089668E671E00E94AA28438162810C94C1
:10173000120B20911B02221F2227221F30911C0214
:10174000432F440F842F822B37FB992790F9883041
:10175000910540F4805A9E4F40911E0260911D02F7
:101760000C94120B089768E671E00E94AA28F4CF47
:1017700060911D02683F90F4685F80911B02881F92
:101780008827881F90911C02292F220F97FB9927E9
:1017900090F940911E02822B0C94120B6FEFEDCF4B
:1017A00060911D02683090F0685080911B02881F84
:1017B0008827881F90911C02292F220F97FB9927B9
:1017C00090F940911E02822B0C94120B60E0EDCF39
:1017D00040911E02483F90F4485F80911B02881F91
:1017E0008827881F90911C02292F220F97FB992789
:1017F00090F960911D02822B0C94120B4FEFEDCFEC
:1018000040911E02483090F0485080911B02881F82
:101810008827881F90911C02292F220F97FB992758
:1018200090F960911D02822B0C94120B40E0EDCFD9
:10183000CF93DF9300D000D0CDB7DEB790911B02DD
:1018400090FF47C09178811132C0926090931B0243
:1018500080911B0290911C02A0911D02B0911E026A
:1018600089839A83AB83BC83BC01CD010E947C0A2F
:1018700080911B02982F9E77923009F51092660195
:10188000881F8827881F90911C02292F220F97FB01
:10189000992790F940911E0260911D02822B0F90B2
:1018A0000F900F900F90DF91CF910C94120B893114
:1018B00010F09063CBCF8F73880F982BC7CF982FE2
:1018C0009695925C9F739631D8F691E0909366015D
:1018D000D7CF0F900F900F900F90DF91CF91089579
:1018E0008091EE0181608093EE0181E08093670139
:1018F0000E948D1B811104C00E946C1B0E94820AF1
:101900000E94780A60931B0270931C0280931D0250
:1019100090931E026E7761F40E94820A0E94780AF8
:1019200060931B0270931C0280931D0290931E0211
:1019300081E08093660180911B0280FF04C0869540
:101940008F730C94180C089580911B0286958F73E9
:101950008F5F893108F081E00C94180CCF93DF93EE
:1019600000D000D0CDB7DEB790911B02892F8E7FBB
:1019700090FF816080931B0280911B0290911C025A
:10198000A0911D02B0911E0289839A83AB83BC8310
:10199000BC01CD010E947C0A80911B0280FF0AC01D
:1019A00086958F730F900F900F900F90DF91CF91CE
:1019B0000C94180C109266019FEFA0E7B2E09150D2
:1019C000A040B040E1F700C000000F900F900F90D2
:1019D0000F90DF91CF910C94A60ACF93C82F8091DE
:1019E0006401909165010E94371CEC2FF0E0E253F6
:1019F000FB4FE491E817190609F010F50E942B1C23
:101A00009093650180936401E0916301F0E0EE52F0
:101A1000FB4F449180911B02881F8827881F90915B
:101A20001C02292F220F97FB992790F960911D0224
:101A3000822B0E94C70A809163018F5F80936301AC
:101A4000CF910895CF93C82F809161019091620149
:101A50000E94371CEC2FF0E0E553FB4FE491E817B0
:101A6000190609F0E8F40E942B1C90936201809300
:101A7000610140911E0260911D0280915F01909171
:101A800060010E94C70A80915F01909160010196F8
:101A900068E671E00E9496289093600180935F0150
:101AA000CF910895CF92DF92EF92FF921F93CF9341
:101AB000DF93182F80915D0190915E010E94371C89
:101AC000E12FE695F0E0E553FB4FE491E8171906A6
:101AD00009F0C0F50E942B1C90935E0180935D017C
:101AE00083E2E82E82E0F82ED0E0C0E098E6C92E2E
:101AF000DD24D39480915B0190915C018C0F9D1F3C
:101B0000B6010E949628970140911E0260911D0225
:101B10000E94F509299683E0E80EF11CC83681E0A1
:101B2000D80741F70E94A60A80915B0190915C0161
:101B300010FF10C00196BE010E94962890935C0190
:101B400080935B01DF91CF911F91FF90EF90DF9029
:101B5000CF9008950197F2CFAF92BF92CF92DF92CC
:101B6000EF92FF920F931F93CF93DF93C82FDD2443
:101B7000DA9480FD02C0DD24D394809159019091C4
:101B80005A010E94371CC695EC2FF0E0E853FB4F3A
:101B9000E491E817190611F008F053C00E942B1CBD
:101BA00090935A0180935901C3E2D2E010E000E023
:101BB00097E0A92EB12C198218821A8287E0E82EAC
:101BC000F12CC12C809158018C0D87FD885D082E69
:101BD000000C990B80179107E9F420911E022E9DAD
:101BE000C0012F9D900D1124B5010E94AA28462FF7
:101BF00080911B02881F8827881F90911C02592FF3
:101C0000550F97FB992790F99E0160911D02852B36
:101C10000E94F509CD0C81E0E81AF10899F60F5FF2
:101C20001F4F23960832110531F60E94A60A8091B3
:101C3000580191E0D91212C081110EC087E2809341
:101C40005801DF91CF911F910F91FF90EF90DF909E
:101C5000CF90BF90AF9008958150F1CF90E0019662
:101C6000B8010E94AA28EBCFBF92CF92DF92EF92E9
:101C7000FF920F931F93CF93DF93CDB7DEB7C85773
:101C8000D1090FB6F894DEBF0FBECDBF182F8091DB
:101C90005601909157010E94371CE12FF0E0EB5361
:101CA000FB4FE491E817190611F008F07AC00E9482
:101CB0002B1C90935701809356018E010F5F1F4F8D
:101CC000F12CE12C6801D80111961C9211971C92FD
:101CD00012961C92B12C9091000180915501B99EF1
:101CE000800D112488320CF087E287FD80E0082EF9
:101CF000000C990B8E159F05A1F480911B02881F83
:101D00008827881F90911C02592F550F97FB992700
:101D100090F9980140911E0260911D02852B0E944E
:101D2000F509B394B7E0BB12D6CFEFEFEE1AFE0A77
:101D30000D5F1F4FF8E2EF16F10429F623E232E0BF
:101D400009E010E058E2E52EF12CC801B7010E942D
:101D5000AA28FC01EE0FFF1FE80FF91FEC0DFD1D77
:101D60008181D90111968C93119780818C93828106
:101D700012968C930F5F1F4F2D5F3F4F013311055C
:101D800021F70E94A60A909100018091550191309F
:101D9000E9F48A3FBCF489EF809355018FEF80937B
:101DA0000001C858DF4F0FB6F894DEBF0FBECDBF9D
:101DB000DF91CF911F910F91FF90EF90DF90CF9027
:101DC000BF900895815080935501EBCF8F322CF056
:101DD0008EE28093550181E0E2CF8F5FF4CFCF9305
:101DE000DF9380915301909154010E94371C883EEB
:101DF000934028F10E942B1C90935401809353012F
:101E00008091510190915201019681709927909390
:101E1000520180935101C3E2D2E09E0140911E0223
:101E200060911D0290E080E00E94F509239682E017
:101E3000CB39D80791F7DF91CF910C94A60ADF91A7
:101E4000CF91089580916601882371F180911B02E2
:101E500086958F739EE3980F9F73943018F4825089
:101E60000C94ED0C9AE3980F9F73933018F48650FE
:101E70000C94220D97E3980F9F73963018F48950B5
:101E80000C94520D91E3980F9F73963018F48F5075
:101E90000C94AC0D9BE2980F9F73933018F485510E
:101EA0000C94340E0C94EF0E089590936D01809372
:101EB0006C010895E0916C01F0916D01309721F073
:101EC0000190F081E02D099480E00895E0916C018B
:101ED000F0916D01309721F00280F381E02D09949B
:101EE0000895E0916C01F0916D01309721F004802C
:101EF000F581E02D0994089520916A0130916B01DC
:101F00002817390771F090936B0180936A01E09173
:101F10006C01F0916D01309721F00680F781E02D82
:101F200009940895209168013091690128173907B3
:101F300071F09093690180936801E0916C01F091D8
:101F40006D01309721F00084F185E02D099408950A
:101F500008950C94A80F0E94221C0E94B6080E94AB
:101F6000E41C0C94700CBF92CF92DF92EF92FF9220
:101F70000F931F93CF93DF9300D000D00F92CDB774
:101F8000DEB70E940D098FE6C82E81E0D82E10E042
:101F900000E0E02E802F0E94B409B82EF601F190E7
:101FA0006F01F81609F45BC08091EE0181FD0E947B
:101FB000BA0930E020E0FB244F2D50E0922FBA0107
:101FC000022E02C0759567950A94E2F760FF41C042
:101FD0002983EA8221E030E0790102C0EE0CFF1C87
:101FE0009A95E2F72B2D30E02E213F2181E0232B23
:101FF00009F480E08B830E942B1C8160782F9D83E5
:102000008C8349815A816B818D810E945510F80122
:10201000E159FE4F80818E2580830E94911F0E948E
:102020005A0F90916E01891789F10E945A0F80937F
:102030006E010F900F900F900F900F90DF91CF9146
:102040001F910F91FF90EF90DF90CF90BF900C9475
:1020500057062F5F3F4F2530310509F0AFCF0F5F97
:102060001F4F0530110509F094CF8FEF89838A83C4
:102070001B820E942B1C8160782F9D838C83498159
:102080005A816B818D810E945510C7CF0F900F90A0
:102090000F900F900F90DF91CF911F910F91FF90B4
:1020A000EF90DF90CF90BF900895CF93DF93CDB79F
:1020B000DEB72B970FB6F894DEBF0FBECDBF4F83B0
:1020C000588769877A878B871E8285E0FE0137965D
:1020D000DE01119601900D928A95E1F749815A81AE
:1020E0006B817C818D819E812B960FB6F894DEBF2B
:1020F0000FBECDBFDF91CF910C94CC16882309F48D
:10210000D8C0823871F40E945A0F81FDD2C089E391
:102110000E94731A0E943D1B89E30E94B01A0C941E
:102120003D1B833859F40E945A0F80FDC2C083E5DD
:102130000E94731A0E943D1B83E5EFCF843859F447
:102140000E945A0F82FDB5C087E40E94731A0E9454
:102150003D1B87E4E2CF9CEF980F913A18F40E9460
:10216000731ADDCF90E2980F983050F4877091E0A9
:1021700001C0990F8A95EAF7892F0E94F41ACFCFF0
:102180009BE5980F933070F4853A31F0863A39F038
:1021900083E890E00C947C0F81E890E0FBCF82E82C
:1021A00090E0F8CF98E5980F953108F082C0883A12
:1021B00009F440C0893A09F440C08A3A09F440C0A1
:1021C0008B3A09F440C08C3A09F440C08B3B09F4C7
:1021D00040C08C3B09F440C08D3A09F440C0803BBC
:1021E00009F440C08E3A09F440C08F3A09F440C067
:1021F000813B09F440C0823B09F440C0833B09F4B1
:1022000040C0843B09F440C0853B09F440C0863B94
:1022100009F440C0873B09F440C0883B09F440C042
:10222000893B09F440C08A3B09F440C090E080E05B
:102230000C94920F82EE90E0FBCF89EE90E0F8CF05
:102240008AEE90E0F5CF85EB90E0F2CF86EB90E060
:10225000EFCF83EB90E0ECCF84EB90E0E9CF87EB1E
:1022600090E0E6CF8CEC90E0E3CF8DEC90E0E0CF17
:1022700083E891E0DDCF8AE891E0DACF82E991E06E
:10228000D7CF84E991E0D4CF81E292E0D1CF83E24D
:1022900092E0CECF84E292E0CBCF85E292E0C8CF4D
:1022A00086E292E0C5CF87E292E0C2CF8AE292E076
:1022B000BFCF0895882309F44BC0823871F40E947F
:1022C0005A0F81FF45C089E30E94731A0E943D1B8B
:1022D00089E30E94B01A0C943D1B833859F40E9484
:1022E0005A0F80FF35C083E50E94731A0E943D1B80
:1022F00083E5EFCF843859F40E945A0F82FF28C03B
:1023000087E40E94731A0E943D1B87E4E2CF9CEF92
:10231000980F913AF0F290E2980F983050F487704D
:1023200091E001C0990F8A95EAF7892F0E94FA1A65
:10233000D2CF9BE5980F933020F490E080E00C948E
:102340007C0F885A853120F490E080E00C94920F45
:102350000895882321F00E94F41A0C943D1B0895DF
:10236000882321F00E94FA1A0C943D1B08958F9245
:102370009F92AF92BF92DF92EF92FF920F931F93C3
:10238000CF93DF9300D000D00F92CDB7DEB77C01A2
:102390006D837983FC01058102950F701281111103
:1023A0000E94131B0E946C1AD82E882371F01123EF
:1023B000A1F08D81805E883080F082E00E94561A04
:1023C0000E946C1A91E0D82ED926E981E295EF702F
:1023D000F0E0EA5CF64D0C94BE28D12CF6CF0981D2
:1023E0000F70F981F07F11F00295007F1123B1F099
:1023F000002361F08D81805E883018F02D812111DD
:1024000009C0802F0E94F41A0E943D1B8D810E94FA
:102410007E1015C0802F0E94051BF6CF8D810E9473
:102420005A11002361F08D81805E883018F03D8163
:10243000311129C0802F0E94FA1A0E943D1BDD2015
:1024400009F4D3C10E94491A80FDCFC1F70112825D
:102450000E94431A0E948A18C7010E9406140E9413
:10246000431A0F900F900F900F900F90DF91CF9124
:102470001F910F91FF90EF90DF90BF90AF909F90D2
:102480008F900C94AC18802F0E940B1BD6CF4981E3
:102490004F70B42E5981507F503219F0B29480EFB2
:1024A000B8228D81882369F0813029F1112369F1E7
:1024B000002359F0F701858180FFA8CF8F708583B5
:1024C00004C0112361F0011104C08B2D0E94A911D9
:1024D000B6CF8B2D0130D1F70E94271BB0CF011151
:1024E00006C00E942A1B8B2D0E94B011A8CF01307C
:1024F00009F4A5CFF6CF112321F0063008F09FCFC5
:10250000E4CF053008F09BCFEECF002361F38D813F
:102510000E945A1194CF898186958695837069F0BF
:10252000813009F08CCF8D8199819370111102C097
:1025300090E080E00E94920F82CF8D81998193700C
:10254000111102C090E080E00E947C0F78CF8D8155
:10255000112329F00E949F1E0E94861F70CF0E94A7
:10256000071FFACF8981837009F05FC0111167CF0F
:102570002D81229526952770220F220F8D818F7035
:1025800090E0B0E0A0E04C015D01022E04C0880C98
:10259000991CAA1CBB1C0A94D2F7FD8160E070E074
:1025A000CB01F4FF0FC06FE070E080E090E004C06A
:1025B000660F771F881F991F2A95D2F7609570952F
:1025C0008095909529812695269523702D8322301C
:1025D000B1F0233019F19B01AC01282939294A298E
:1025E0005B2929833A834B835C833D8169817A81AE
:1025F0008B819C813130B1F00E94171820CF9B0154
:10260000AC01282939294A295B2929833A834B833C
:102610005C83CA01B9010E94411811CF0E941718AA
:10262000C501B4010E94ED170ACF8695112311F060
:1026300089818170882309F402CF2D812295269506
:102640002770220F220F8D818F7090E0B0E0A0E004
:102650004C015D01022E04C0880C991CAA1CBB1CF5
:102660000A94D2F73D8160E070E0CB0134FF0FC0E7
:102670006FE070E080E090E004C0660F771F881F75
:10268000991F2A95D2F7609570958095909549810C
:102690004695469543704D834230B1F0433019F171
:1026A0009B01AC01282939294A295B2929833A83CE
:1026B0004B835C833D8169817A818B819C81313040
:1026C000B1F00E941D19BBCE9B01AC01282939290C
:1026D0004A295B2929833A834B835C83CA01B90168
:1026E0000E944719ACCE0E941D19C501B4010E9479
:1026F000F318A5CE3D81323F09F447C080F4303F46
:1027000079F1313FD9F1832F805E8031D0F01123F0
:1027100009F456C001117ACE89818F7133C04D8181
:10272000433FD1F1443F99F7112309F43FC0898118
:102730008F7189830E948A1863E089810E944D1AF3
:102740007ECE5D815F705D8389818F71112321F061
:102750000E948A188D81BACE0E94AC188D81C4CE99
:10276000112341F0053008F06ACE89818F710E94F3
:10277000D11865CE063008F062CEF7CF89818F710F
:10278000112339F00E948A185ACE89818F71112342
:10279000C9F30E94AC1853CE112329F089818F719F
:1027A0000E9475184CCE0E946B1849CE81E00E94A1
:1027B000561A023008F443CE82E00E94561A3FCEE9
:1027C0000111A5CE89818F71E4CF49814F706D8150
:1027D000C7010E9488040E94661731CE49814F705C
:1027E0006D81C7010E9459062ACE0F900F900F905D
:1027F0000F900F90DF91CF911F910F91FF90EF906D
:10280000DF90BF90AF909F908F9008950F931F938C
:10281000CF93DF93EC018B819C81892B29F08881F8
:10282000998189238F3F29F4DF91CF911F910F91D7
:102830000895CE010E94EF048823B1F36881798165
:102840008A810E94191A8C010E9471190E94E21754
:10285000B801CE01DF91CF911F910F910C94B71168
:102860000E94131B0E94241B0E94E61A0E943D1B1B
:102870000E9477200E94861F90E080E00E947C0FDB
:1028800090E080E00C94920F0E94021B0C94301494
:102890000E940D1A282F892F82958F70903C80F40A
:1028A0008A30B0F4843020F4823090F480E00895CF
:1028B0008630E1F781E0203E88F0213FB9F70EC075
:1028C0008C3011F08F3091F793FB882780F90895B1
:1028D00081E0203F39F018F4203E40F70895243F6E
:1028E00029F7FCCF0895CF93DF9300D000D00F924B
:1028F000CDB7DEB70F900F900F900F900F90DF9134
:10290000CF910895CF93DF9300D000D000D0CDB702
:10291000DEB726960FB6F894DEBF0FBECDBFDF91AF
:10292000CF9108951F93CF93DF93E091750116E047
:10293000809176018E1304C0DF91CF911F9108958D
:10294000CE2FD0E01E9FF0011124E958FE4F4081A8
:10295000518162817381848195810E948214FE017C
:102960003196E770E5CF4091A7015091A8016091A1
:10297000A9017091AA018091AB019091AC010C94D6
:1029800082141F93CF93DF938091AC01807FC1F4B9
:102990008091A9018823A1F080917501C0917601F1
:1029A0006091A7017091A8014091AA015091AB01DB
:1029B000D62FD723DA01A095B09516E0C81304C02E
:1029C000DF91CF911F91089590E04115510511F0CD
:1029D000DF3F31F401968770F1CF2A0F3B1F17C0FC
:1029E000189FF001199FF00D1124E958FE4F218125
:1029F0002713F0CF20812613EDCF22812111EACFBA
:102A0000238134812417350740F3241B350B283CE0
:102A1000310500F72091AC012F7020612093AC01AB
:102A200026E0289FF001299FF00D1124E458FE4F65
:102A300080818F708061808387EA91E00E94061414
:102A4000DF91CF911F910C9492149F92AF92BF92FD
:102A5000CF92DF92EF92FF920F931F93CF93DF936A
:102A6000CDB7DEB72B970FB6F894DEBF0FBECDBF44
:102A70008C0185E0F801DE01179601900D928A9590
:102A8000E1F7D8014C9111965C9111971296EC9058
:102A900012978091AA019091AB01009709F46BC144
:102AA0002091A7013091A801632F62236F3F09F4A1
:102AB00062C11396CD90DC909090A901992009F401
:102AC000F8C0C816D90608F43FC0F601E81BF90B98
:102AD000CF01FF24F394883C910508F0F12C87EA9C
:102AE000A82E81E0B82E8091AC01982F907FFF2016
:102AF00009F4B7C0911180C0FE2C35132AC02413ED
:102B000028C0E11026C08F7080618093AC010E94C4
:102B1000B314C5010E9406148091AC01D80115962A
:102B20008C938F2D2B960FB6F894DEBF0FBECDBFC2
:102B3000DF91CF911F910F91FF90EF90DF90CF9099
:102B4000BF90AF909F900895809590958C0D9D1D9E
:102B5000C0CFCD2829F0842F85238F3F09F019C1DC
:102B600080E0B82FB170DB2EE091750120917601E5
:102B700036E080FD1CC0EE20A1F28091AC018160A6
:102B80008093AC01F12CCDCF8E2F90E03E9FF001D1
:102B90001124E958FE4F6181651306C060816413FA
:102BA00003C062816E11E7CFFC013196E770E2133A
:102BB000EBCF4F8358878F8198850E940D1A292F5C
:102BC00022952F70903260F0225F2F70223078F4BF
:102BD0009F7051F0F8019581907F31F4D12C0AC09B
:102BE0009F7011F08823D1F3805E8830B8F3C8015C
:102BF0000E940614FD2C95CF351306C0241304C083
:102C0000D801EE2009F47BC04F8358878F819885C7
:102C10000E944814882309F4B8C0EE2009F4B5C016
:102C20008091AC01803270F02091A7013091A80111
:102C30003A8329831B82DD82CC828E83CE0101966A
:102C40000E94061486E0F801A7EAB1E001900D9217
:102C50008A95E1F70E94C1140E94B314FF24F394F3
:102C600060CF911113C07C2DDB86CA866E2D8B85BB
:102C70000E94731487EA91E00E94061486E0F50131
:102C800011928A95E9F70E94B3144BCF3513BCCF4C
:102C90002413BACFE110B8CFD80115968C93C80190
:102CA0000E94061486E0F50111928A95E9F7F92C45
:102CB00038CFC816D90688F1B601681B790BCB014D
:102CC000F12C883C910508F047C0FE2CEE2009F459
:102CD0005CC0351330C024132EC08091AC0180FD40
:102CE00021C0982F907FF1F0D80115968C931597FD
:102CF000903F39F0982F907F905F8F70892B1596B9
:102D00008C93C8010E94061486E0F801A7EAB1E09E
:102D100001900D928A95E1F7B6CF809590958C0D34
:102D20009D1DCECF86E0F801A7EAB1E001900D929B
:102D30008A95E1F7F6CE4F8358878F8198850E9458
:102D4000481481117FCF8091AC0181608093AC01E8
:102D5000C8010E940614E5CE7C2DDB86CA866E2D46
:102D60008B850E94731486E0E7EAF1E0DF011D9293
:102D70008A95E9F788CFEE2041F04F8358878F81FD
:102D800098850E94481481115DCFC8010E940614E5
:102D900065CF81E08E25E5CE1F93CF93DF93CDB72E
:102DA000DEB72C970FB6F894DEBF0FBECDBF4F83B2
:102DB000588769877A878B879C87CE0107960E9400
:102DC0002515882369F08A859B85892B39F04F81E9
:102DD0005885842F85238F3F09F071C016E05FC0AE
:102DE00086E0FE013796DE01119601900D928A95DC
:102DF000E1F78A859B85892B89F388859F818923C3
:102E00008F3F61F32091760130E0C9010196877010
:102E10009927409175014817190671F40E944414CE
:102E2000109276011092750186E0E7EAF1E0DF0189
:102E30001D928A95E9F7D2CF96E0929FD001939F99
:102E4000B00D1124A958BE4FFE01319601900D928C
:102E50009A95E1F7809376010E949214BFCF819FEB
:102E6000C001112489589E4F0E9425158823E9F03E
:102E7000E09175011E9FF0011124E958FE4F408139
:102E8000518162817381848195810E948214809135
:102E9000750190E001968770992780937501809164
:102EA0007501909176018913DACF2C960FB6F894BC
:102EB000DEBF0FBECDBFDF91CF911F910895698511
:102EC0007A858B859C850E94821488CFEF92FF9231
:102ED0000F931F93CF93DF938C01892B89F0F12CF3
:102EE000EE24E394E8012196F8018491843709F4F3
:102EF00057C0A0F4823009F43EC048F48130D1F0CC
:102F0000DF91CF911F910F91FF90EF9008959CEF6B
:102F1000980F9037A8F70E947E100AC0853709F4F1
:102F20004CC09CE7980F903758F78F770E945A1142
:102F30008E0116C00E5F1F4FFE01849190E2980F24
:102F4000983060F48770FE2D01C0FF0F8A95EAF774
:102F50008F2F0E94161B0E943D1B02C00E947E10F4
:102F60008F2D815008F4BECFEFE9FFE03197F1F7E4
:102F700000C00000F6CF0E5F1F4FFE01849190E26B
:102F8000980F983050F48770FE2D01C0FF0F8A957E
:102F9000EAF78F2F0E941C1BDECF0E945A11E0CF50
:102FA0000E5F1F4FFE01C491C150D0F28FE99FE028
:102FB0000197F1F700C00000F7CF0E5F1F4FFE0131
:102FC000F490CECF08956093C5017093C6018093AD
:102FD000C7019093C8010C943014CF93DF9300D0B5
:102FE00000D0CDB7DEB769837A838B839C838091D1
:102FF000C5019091C601A091C701B091C801298176
:103000003A814B815C81822B932BA42BB52B80932F
:10301000C5019093C601A093C701B093C8010F905A
:103020000F900F900F90DF91CF910C943014CF93AD
:10303000DF9300D000D0CDB7DEB769837A838B836E
:103040009C838091C5019091C601A091C701B09168
:10305000C80129813A814B815C8182239323A42377
:10306000B5238093C5019093C601A093C701B09387
:10307000C8010F900F900F900F90DF91CF910C949B
:103080003014CF93DF9300D000D0CDB7DEB7698383
:103090007A838B839C838091C5019091C601A09116
:1030A000C701B091C80129813A814B815C81822797
:1030B0009327A427B5278093C5019093C601A093B9
:1030C000C701B093C8010F900F900F900F90DF9140
:1030D000CF910C9430141092C1011092C201109241
:1030E000C3011092C4010C94301441E050E060E040
:1030F00070E004C0440F551F661F771F8A95D2F7F2
:103100004093C1015093C2016093C3017093C40105
:103110000C943014282F81E090E0A0E0B0E004C0CF
:10312000880F991FAA1FBB1F2A95D2F74091C10192
:103130005091C2016091C3017091C401842B952B01
:10314000A62BB72B8093C1019093C201A093C3011A
:10315000B093C4010C94301441E050E060E070E0A2
:1031600004C0440F551F661F771F8A95D2F74095FC
:103170005095609570958091C1019091C201A09188
:10318000C301B091C40184239523A623B723809360
:10319000C1019093C201A093C301B093C4010C94E8
:1031A0003014282F81E090E0A0E0B0E004C0880F48
:1031B000991FAA1FBB1F2A95D2F74091C1015091B8
:1031C000C2016091C3017091C40184279527A6278D
:1031D000B7278093C1019093C201A093C301B0931C
:1031E000C4010C943014CF93DF9300D000D0CDB73E
:1031F000DEB769837A838B839C838091C101909130
:10320000C201A091C301B091C40129813A814B81CF
:103210005C81822B932BA42BB52B8093C1019093BF
:10322000C201A093C301B093C4010F900F900F90FF
:103230000F90DF91CF910C943014CF93DF9300D097
:1032400000D0CDB7DEB769837A838B839C8380916E
:10325000C1019091C201A091C301B091C401298123
:103260003A814B815C8182239323A423B5238093ED
:10327000C1019093C201A093C301B093C4010F9008
:103280000F900F900F90DF91CF910C943014CF934B
:10329000DF9300D000D0CDB7DEB769837A838B830C
:1032A0009C838091C1019091C201A091C301B09112
:1032B000C40129813A814B815C8182279327A4270D
:1032C000B5278093C1019093C201A093C301B0932D
:1032D000C4010F900F900F900F90DF91CF910C943D
:1032E00030140895292F220F220FE22FE90FE80F43
:1032F0008E2F877041E001C0440F8A95EAF7E6956A
:10330000E695E69585E0E89FF0011124E355FE4F30
:1033100030E020E070E05191DF011197CB01022EE7
:1033200002C0969587950A94E2F78170819585276A
:10333000842385278C932F5F3F4F2530310559F724
:103340000895292F220F220FE22FE90FE80F9E2F59
:103350009770E695E695E69585E0E89FF0011124E3
:10336000E355FE4F50E040E080E0219130E0092E2F
:1033700002C0369527950A94E2F721703327042E70
:1033800001C0220F0A94EAF7822B4F5F5F4F45304E
:10339000510559F70895BF92CF92DF92EF92FF92B5
:1033A0000F931F93CF93DF938C01C090C101D090F6
:1033B000C201E090C301F090C4018091C5019091D9
:1033C000C601A091C701B091C801C82AD92AEA2A2A
:1033D000FB2ACFE1D0E0BC2ED701C6010C2E04C0E1
:1033E000B695A795979587950A94D2F780FD0EC05C
:1033F000219788F7B12C8B2DDF91CF911F910F91E1
:10340000FF90EF90DF90CF90BF900895B8018C2F80
:103410000E947606019761F3EECFCF93DF93D82F0A
:10342000C92F0E94CB196D2F7C2FDF91CF910C9467
:1034300076061F93CF93DF93162FD72F90917401A9
:10344000992339F0862F972FDF91CF911F910C94FC
:103450000D1A882391F0862F972F0E94CB19C82F21
:10346000682F812F9D2F0E947219612F7D2F8C2F25
:10347000DF91CF911F910C947606862F972F0E9493
:10348000A119C82FF2CF8091C901859585958595A1
:1034900008958091C9018770089598E0899F9001EF
:1034A0001124622B6093C9010C948A189091C90170
:1034B000809589238093C901282F277061F4282FD4
:1034C000082E000C330B9217130629F0859585956D
:1034D00085950C94AC1808959091C901977081E07E
:1034E00009F480E00895909113019923E1F09091FF
:1034F0009F0297FF18C0E82FE695E695E695EF3115
:1035000039F12091010130910201E20FF32FF11DF9
:10351000877021E030E001C0220F8A95EAF78181AF
:10352000822B818308952091010130910201F901DC
:1035300032969FEF40E05191851751F09F3F19F46B
:10354000511101C0942F4F5F4E31A9F79F3F09F4ED
:103550000895290F311D97FD3A95F9018283089549
:1035600090911301992301F190919F0297FF1CC044
:10357000E82FE695E695E695EF3139F120910101C6
:1035800030910201E20FF32FF11D877021E030E04E
:10359000A90102C0440F551F8A95E2F7CA01809520
:1035A0009181892381830895209101013091020145
:1035B000F9013296205E3F4F9191891303C0DF01DC
:1035C00011971C92E217F307B9F7089581E090E094
:1035D000E0910101F0910201E80FF91F10820196BC
:1035E00080329105A9F708959091ED01982B909361
:1035F000ED010895982F90958091ED018923809396
:10360000ED0108951092ED0108959091EC01982B31
:103610009093EC010895982F90958091EC01892367
:103620008093EC0108951092EC0108959091EB01C4
:10363000982B9093EB010895982F90958091EB0132
:1036400089238093EB0108951092EB0108958093F4
:10365000CA0108951092CA01089520910101309184
:103660000201F9013196205E3F4F80E09191911166
:103670008F5FE217F307D1F70895E0910101F09110
:1036800002018091ED018083E0910101F09102013E
:1036900080819091EC01892B8083E0910101F09170
:1036A000020180819091EB01892B80839091CA0166
:1036B000992361F0E0910101F09102018081892B51
:1036C00080830E942D1B81111092CA0180910101FB
:1036D000909102010C94660F6DEE7EEF90E080E019
:1036E0000E94F62860E082E090E00E94D82860E026
:1036F00083E090E00E94D82860E084E090E00E949F
:10370000D82860E085E090E00E94D82840E050E0B2
:10371000BA0188E090E00C94EA2890E080E00E94F2
:10372000D2289C0181E02D3E3E4F09F080E00895B3
:1037300082E090E00C94C428682F82E090E00C9422
:10374000D82883E090E00C94C428682F83E090E0B0
:103750000C94D82884E090E00C94C428682F84E06E
:1037600090E00C94D8288091A502843039F1109211
:10377000EF0188E190E020E40FB6F894A8958093DB
:1037800060000FBE2093600080E00E94570683B760
:10379000817F846083BF83B7816083BF789488957D
:1037A00083B78E7F83BF0FB6F894A8958091600091
:1037B000886180936000109260000FBE08950895A4
:1037C0000895CF930E94DF1B0E940D090E94E01B09
:1037D000C0E08C2F0E94B409811105C0CF5FC530B5
:1037E000C1F7CF91089581E0FCCF0E9444140E945C
:1037F0005A0F0C9457061F921FB61F9211248F93D5
:103800009F93AF93BF938091EF01811113C080917B
:103810009B0290919C02A0919D02B0919E024196C4
:10382000A11DB11D80939B0290939C02A0939D02C9
:10383000B0939E02BF91AF919F918F911F901FBE39
:103840001F90189582E084BD93E095BD9AEF97BDD7
:1038500080936E0008952FB7F89480919B02909109
:103860009C02A0919D02B0919E022FBF0895CF921D
:10387000DF92EF92FF929C014FB7F89480919B02E8
:1038800090919C02A0919D02B0919E024FBF6C014D
:103890007D01EE24FF24A90170E060E0C416D50686
:1038A000E606F70638F0821B930BFF90EF90DF904F
:1038B000CF9008950197F7CF1F921FB61F92112442
:1038C0008F939F93AF93BF9380919B0290919C02A3
:1038D000A0919D02B0919E020196A11DB11D809301
:1038E0009B0290939C02A0939D02B0939E02BF9175
:1038F000AF919F918F911F901FBE1F9018950E94AE
:103900006D24F8942FEF87EA91E621508040904093
:10391000E1F700C0000087E090EBDC018093AE028D
:103920009093AF02A093B002B093B10288E19CE003
:103930000FB6F894A895809360000FBE9093600036
:10394000FFCFCF92DF92EF92FF920F931F93CF930F
:10395000C0E0E82EF12C8C2F0E94B40910E000E0AA
:10396000C82ED12CC601002E02C0959587950A94C9
:10397000E2F780FF11C0602F7C2F80E00E945A0682
:10398000E816F90649F481E0CF911F910F91FF905D
:10399000EF90DF90CF9008950F5F1F4F0530110516
:1039A00009F7CF5FC530B9F680E0EECFCF93C82FCF
:1039B0008CE20E94A11C882321F08C2FCF910C94C3
:1039C000A11C80E0CF910895CF93DF9300D000D069
:1039D000CDB7DEB70E948D1B811102C00E946C1B07
:1039E00095E6998308C00E940D098FE39CE9019731
:1039F000F1F700C00000A981A150A983A111F3CF64
:103A000089E20E94D61C811110C18AE20E94D61C54
:103A100081110E946C1B85E00E94D61C81110E94BE
:103A20007F1C0E94981B8093EE0187E00E94D61CA9
:103A3000882371F08BE10E94D61C882309F4D1C041
:103A40009091EE01892F8D7F91FF82608093EE012E
:103A50008091EE010E949C1B0E94AA1B90E0909313
:103A6000A00280939F0280EE0E94D61C882341F022
:103A700090919F02892F8E7F90FF816080939F029B
:103A800089E30E94D61C882341F090919F02892FE0
:103A90008D7F91FF826080939F0282EE0E94D61CF0
:103AA000882341F090919F02892F8B7F92FF846041
:103AB00080939F0286EE0E94D61C882341F090914D
:103AC0009F02892F877F93FF886080939F0283EEF8
:103AD0000E94D61C882341F090919F02892F8F7EEF
:103AE00094FF806180939F0285E30E94D61C882307
:103AF00041F090919F02892F8F7D95FF8062809386
:103B00009F0281E30E94D61C882341F090919F027E
:103B1000892F8F7B96FF806480939F0281E10E94B2
:103B2000D61C882341F090919F02892F97FB87F93B
:103B3000805880939F0280919F020E94AE1B87E273
:103B40000E94D61C89838EE10E94D61C882319F01E
:103B5000B981B260B9838FE10E94D61C882319F025
:103B600029812460298380E20E94D61C882319F0D1
:103B700039813860398381E20E94D61C882319F08C
:103B800049814061498382E20E94D61C882319F052
:103B900059815062598383E20E94D61C882319F010
:103BA00089818064898384E20E94D61C8823B1F1D4
:103BB00099819068998389810E94A51B3981232F5F
:103BC00030E050E040E029833A834B835C83CA01B4
:103BD000B9010F900F900F900F90DF91CF910C943F
:103BE000E3178EE00E94D61C882339F09091EE01F5
:103BF000892F8B7F92FF846029CF80E10E94D61CA1
:103C00009091EE01882329F0892F877F93FF8860A8
:103C10001DCF892F8E7F90FF816018CFA981A111C0
:103C2000CACF0E94A11B282FCBCF0F900F900F90CF
:103C30000F90DF91CF9108958091F20180FF12C023
:103C40006091060185E0689FB00111247595679524
:103C50007595679560387105A8F561157105A1F135
:103C6000862F089581FF09C06091060185E0689F55
:103C7000B001112475956795EDCF6091060182FD25
:103C80000AC08091F3018823D1F0909105016091E1
:103C90000601891728F085E0689FB0011124DACF6A
:103CA000869FB001112485E0869F9001879F300D8B
:103CB0001124692F70E0C9010E94AA28CBCF65E0CA
:103CC00070E0CECF8FE7089581E008958091F201F2
:103CD00080FF0CC06091040170E075956795759543
:103CE00067956115710549F1862F089581FF06C01A
:103CF0006091040170E075956795F3CF60910401C0
:103D000082FD0BC09091F3019923A1F06091030112
:103D100080910401961738F0682F70E060387105C3
:103D200000F38FE70895899FC001112470E00E947D
:103D3000AA28F4CF61E070E0D7CF81E00895803FFA
:103D400031F40E941C1E81958093F6010895813FF5
:103D500019F40E941C1EF8CF823F31F40E941C1EF1
:103D600081958093F5010895833F19F40E941C1EEC
:103D7000F8CF893F29F40E94661E8093F7010895C9
:103D80008A3F21F40E94661E8195F7CF8B3F31F464
:103D90000E94661E81958093F80108958C3F19F466
:103DA0000E94661EF8CF843F31F48091F401816057
:103DB0008093F4010895853F21F48091F40182609D
:103DC000F7CF863F21F48091F4018460F1CF873FE3
:103DD00021F48091F4018860EBCF883F21F4809139
:103DE000F4018061E5CF8D3F31F48091F201816073
:103DF0008093F20108958E3F21F48091F201826058
:103E0000F7CF8F3FB9F78091F2018460F1CF9091A5
:103E1000F501803F41F48091F60187FD1092F60193
:103E2000992371F00895813F29F48091F6011816C5
:103E3000ACF3F6CF823F81F497FFF2CF1092F501F9
:103E40008091F6019091F701892B9091F801892BCF
:103E500049F71092F3010895833F19F4191674F38A
:103E6000DFCF893F39F48091F7011816CCF6109214
:103E7000F701D6CF8A3F29F48091F70187FFD0CF91
:103E8000F6CF8B3F39F48091F80187FFC9CF1092AC
:103E9000F801C6CF8C3F29F48091F8011816BCF3C5
:103EA000BFCF843F31F48091F4018E7F8093F40181
:103EB000B7CF853F21F48091F4018D7FF7CF863F06
:103EC00021F48091F4018B7FF1CF873F21F4809121
:103ED000F401877FEBCF883F21F48091F4018F7E3E
:103EE000E5CF8D3F31F48091F2018E7F8093F20116
:103EF00097CF8E3F21F48091F2018D7FF7CF8F3FD6
:103F000009F08ECF8091F2018B7FF0CF84EF91E0AA
:103F10000E94710F0E942B1C9093F1018093F0017D
:103F200008951F93CF93DF9300D000D000D0CDB77A
:103F3000DEB78091F0019091F1010E94371CAC0135
:103F40008091F3012091070130E0811106C020919A
:103F500008019AE0299F900111244217530788F025
:103F60002091F501A091F601A9831091F701B0917C
:103F7000F801BE8321110FC09A2F912B9B2B09F0C2
:103F8000B2C026960FB6F894DEBF0FBECDBFDF914C
:103F9000CF911F9108958F3F19F08F5F8093F301A8
:103FA000121624F40E941C1E8093F5018091F501E5
:103FB00087FF05C00E941C1E81958093F501298111
:103FC000121624F40E941C1E8093F6018091F601C3
:103FD00087FF05C00E941C1E81958093F601809189
:103FE000F501882309F455C03091F6013D83332350
:103FF00009F44FC0282F880F330B440B550B29832E
:104000003A834B835C83CA01B9010E949D2723E355
:1040100033E343E35FE369837A838B839C83698122
:104020007A818B819C810E94012869837A838B83AA
:104030009C8369817A818B819C810E946527609332
:10404000F5018D81082E000C990BAA0BBB0B8983FF
:104050009A83AB83BC83BC01CD010E949D2723E3DF
:1040600033E343E35FE369837A838B839C836981D2
:104070007A818B819C810E94012869837A838B835A
:104080009C8369817A818B819C810E9465276093E2
:10409000F601111624F40E94661E8093F7018091A8
:1040A000F70187FF05C00E94661E81958093F70186
:1040B0009E81191624F40E94661E8093F801809157
:1040C000F80187FF05C00E94661E81958093F80164
:1040D00026960FB6F894DEBF0FBECDBFDF91CF910D
:1040E0001F910C94861F8F3F09F057CF68CF85E052
:1040F000E4EFF1E0DF011D928A95E9F71092F301F8
:104100001092F2010895809119020895CF93DF93E0
:1041100000D00F92CDB7DEB72091A502243019F55B
:1041200023E029838A839B832093E9008FEF90917A
:10413000E800815095FD06C095ED9A95F1F70000D5
:104140008111F5CF8091E80085FF0DC050E040E07F
:1041500063E070E0CE0101960E94E5228091E800C4
:104160008E778093E8000F900F900F90DF91CF91A2
:104170000895CF93DF9300D00F92CDB7DEB79C01A7
:104180008091A502843031F582E08983205831097D
:104190003B832A8383E08093E9008FEF9091E800CE
:1041A000815095FD06C095ED9A95F1F700008111BB
:1041B000F5CF8091E80085FF0DC050E040E063E05E
:1041C00070E0CE0101960E94E5228091E8008E7792
:1041D0008093E8000F900F900F90DF91CF9108959A
:1041E0002091A5022430F1F422E02093E9002FEF82
:1041F0003091E800215035FD06C035ED3A95F1F7D4
:1042000000002111F5CF2091E80025FF0BC050E000
:1042100040E065E070E00E94E5228091E8008E7742
:104220008093E8000895CF93DF93D82FC92F809112
:10423000A5028430F1F4909113019923E9F0909153
:104240009F0297FF19C08093E9008FEF9091E800DB
:10425000815095FD06C095E19A95F1F70000811116
:10426000F5CF8091E80050E040E060E270E085FD2D
:104270001AC0DF91CF91089581E08093E9008FEF1C
:104280009091E800815095FD06C095ED9A95F1F763
:1042900000008111F5CF8091E80085FFEACF50E062
:1042A00040E068E070E08D2F9C2F0E94E522809115
:1042B000E8008E778093E80080E2ED2FFC2FA9EFD5
:1042C000B1E001900D928A95E1F7D3CF8091A402DD
:1042D000811109C00E946D240E94CA248091E200CD
:1042E00084608093E20008951092A40208950895D6
:1042F00008950C94F51B42E061EC81E00E94E923F3
:1043000042E061EC82E00E94E92342E061EC83E05C
:104310000E94E92342E261EC84E00C94E92380915D
:10432000A702893089F148F4823009F494C08330BF
:1043300009F44FC0813041F008958A3009F47BC000
:104340008B3009F461C008958091A602813A09F08A
:104350003FC08091E800877F8093E8008091AA02A7
:104360009091AB02892B61F460E289EF91E070E0FB
:104370000E9434238091E8008B778093E8000895B1
:1043800060E090E080E0F3CF8091A602813201F5F9
:104390008091AA029091AB02009711F00397C1F4AB
:1043A0008091E800877F8093E8008091E80082FF99
:1043B0000BC08091F100809319028091E8008B7707
:1043C0008093E8000C941D248091A5028111EDCF0B
:1043D00008958091A602813AD9F78091AA0290911E
:1043E000AB02892BA9F78091E800877F8093E800D2
:1043F0008091E80080FFFCCF809113018093F10051
:104400008091E8008E77DCCF8091A602813201F79F
:104410008091AA029091AB02892BD1F68091E8009D
:10442000877F8093E8000E941D248091A8028093DA
:1044300013010C9444148091A602813249F68091B4
:10444000E800877F8093E8000E941D248091A902E4
:1044500080931A0208958091A602813A09F0B8CF9C
:104460008091E800877F8093E8008091E80080FFDA
:10447000FCCF80911A02C2CF84B7877F84BF0FB66A
:10448000F894A895809160008861809360001092F4
:1044900060000FBE80E880936100109261000E946E
:1044A000A90F0E946D240E94CA248091E2008460BA
:1044B0008093E20078940E944A270E94AB0F89E023
:1044C00091E00E94550F8091A502853029F00E944D
:1044D000B30F0E94220FF7CF0E94B31B8091A3025B
:1044E000882389F30E94E11B882369F30E94CF226D
:1044F000EACF9C01DA01892F992783309105C1F019
:1045000068F48130910509F445C0029761F48DE6A5
:1045100090E022E037E02D933C930895813291059D
:10452000E1F0829739F190E080E030E020E0F3CFD5
:10453000C9019927213059F08230910559F0EEEFE9
:10454000F6E0892B81F7849190E09F01E4CFE6EEBD
:10455000F6E0F9CFE2EDF6E0F6CF643020F7E62F93
:10456000F0E0EE0FFF1FE65DFE4F2081318189E014
:1045700090E0D1CF6430B8F670E0FB01EE0FFF1F82
:10458000EE5DFE4F20813181625E7E4FFB018081B6
:1045900090E0C1CF82E190E02FE637E0BCCF80E130
:1045A00089BD82E189BD09B400FEFDCF8091D800AC
:1045B0008F7D8093D8008091E00082608093E0003E
:1045C0008091E00081FDFCCF0895AF92BF92CF9221
:1045D000DF92FF920F931F93CF93DF936C01EB0158
:1045E0008A010E943C24F82E811123C00115110577
:1045F00039F0F80180819181C81BD90BC80ED91EF2
:10460000B12CA12C2097A9F08091E80085FD22C053
:104610008091E8008E778093E80001151105A1F0E4
:10462000F80180819181A80EB91EB182A08285E037
:10463000F82E8F2DDF91CF911F910F91FF90DF907A
:10464000CF90BF90AF9008950E943C248823D1F270
:10465000F82EEFCFF60181916F018093F100219741
:10466000FFEFAF1ABF0ACECFFC01CB012091AC0205
:104670003091AD022617370790F0009729F420916A
:10468000E8002E772093E80040E0009751F44111B4
:1046900008C08091E80082FF31C080E00895C90120
:1046A000F3CF2091A5022223A9F12530A9F1209171
:1046B000E80023FD2DC02091E80022FDEACF2091E3
:1046C000E80020FFE2CF3091F3002091F200009744
:1046D00019F02830310558F041E02830310509F053
:1046E00040E02091E8002E772093E800CECF419162
:1046F0004093F10001972F5F3F4FE9CF8091A502D2
:10470000882341F0853041F08091E80083FFC1CFDC
:1047100081E0089582E0089583E00895FC01CB01D3
:104720002091AC023091AD022617370790F0009728
:1047300029F42091E8002E772093E80040E00097CC
:1047400051F4411108C08091E80082FF32C080E03E
:104750000895C901F3CF2091A5022223B1F125309C
:10476000B1F12091E80023FD2EC02091E80022FD48
:10477000EACF2091E80020FFE2CF3091F3002091B2
:10478000F200009719F02830310558F041E0283048
:10479000310509F040E02091E8002E772093E800F1
:1047A000CECF44914093F100319601972F5F3F4F58
:1047B000E8CF8091A502882341F0853041F08091B7
:1047C000E80083FFC0CF81E0089582E0089583E090
:1047D0000895982F973028F08F708093E90081E03A
:1047E00008959093E900242F762F50E0981731F028
:1047F0007091EC002091ED005091F00021FD02C07D
:104800009F5FE8CF3091EB003E7F3093EB0030911B
:10481000ED003D7F3093ED003091EB00316030933F
:10482000EB007093EC002093ED005093F00020918A
:10483000EE0027FDE5CF80E008958091A60287FF76
:1048400013C08091E80082FF06C08091E8008B775A
:104850008093E80004C08091A5028111F2CF0895F1
:104860008091A5028823D9F38091E80080FFF8CFDA
:104870008091E8008E77ECCF2091E4003091E50044
:1048800095E6A9012091EC00822F817020FF06C0DF
:104890008091E80080FF06C080E008952091E80044
:1048A00022FD1AC08091A502882389F0853089F005
:1048B0008091EB0085FD0FC02091E4003091E50070
:1048C00042175307F9F29150E1F684E0089582E02F
:1048D000089583E0089581E008950E94DB240E94FA
:1048E000E324E0EEF0E0808181608083E8EDF0E099
:1048F00080818F77808319BCA7EDB0E08C918E7F8B
:104900008C9380818F7E80831092A40208950F93F0
:104910001F93CF93DF930E94DB240E94E324C8ED12
:10492000D0E088818F7788838881806888838881B8
:104930008F7D888319BC1092A5021092A10210925B
:10494000A3021092A20200EE10E0F80180818B7F9A
:10495000808388818160888342E060E080E00E94FB
:10496000E923E1EEF0E080818E7F8083E2EEF0E0EB
:10497000808181608083808188608083F80180816C
:104980008E7F8083888180618883DF91CF911F91A2
:104990000F910895E8EDF0E080818F7E8083E7ED50
:1049A000F0E080818160808384E082BF81E0809339
:1049B000A4020C948724E8EDF0E080818E7F808350
:1049C0001092E20008951092DA001092E10008952A
:1049D0001F920F920FB60F9211242F933F934F9374
:1049E0005F936F937F938F939F93AF93BF93EF9357
:1049F000FF938091E10082FF0BC08091E20082FF73
:104A000007C08091E1008B7F8093E1000E944927DD
:104A10008091DA0080FF19C08091D80080FF15C016
:104A20008091DA008E7F8093DA008091D90080FF38
:104A300094C080E189BD82E189BD09B400FEFDCF4B
:104A400081E08093A5020E9466218091E10080FFB1
:104A500019C08091E20080FF15C08091E2008E7F36
:104A60008093E2008091E20080618093E200809177
:104A7000D80080628093D80019BC85E08093A5029D
:104A80000E9478218091E10084FF29C08091E2009A
:104A900084FF25C080E189BD82E189BD09B400FEA3
:104AA000FDCF8091D8008F7D8093D8008091E10068
:104AB0008F7E8093E1008091E2008F7E8093E20000
:104AC0008091E20081608093E2008091A1028823BE
:104AD00009F449C084E08093A5020E947921809165
:104AE000E10083FF29C08091E20083FF25C080910F
:104AF000E100877F8093E10082E08093A50210921D
:104B0000A1028091E1008E7F8093E1008091E2001C
:104B10008E7F8093E2008091E20080618093E200CA
:104B200042E060E080E00E94E9238091F00088602C
:104B30008093F0000E947721FF91EF91BF91AF9198
:104B40009F918F917F916F915F914F913F912F91A5
:104B50000F900FBE0F901F90189519BC1092A502D0
:104B60000E94742172CF8091E30087FD02C081E032
:104B7000B2CF83E0B0CF1F920F920FB60F921124E5
:104B80002F933F934F935F936F937F938F939F9355
:104B9000AF93BF93CF93DF93EF93FF93D091E9004F
:104BA000DF708091EC00C82FC17080FDC0E81092CA
:104BB000E9008091F000877F8093F00078940E9454
:104BC000FF251092E9008091F00088608093F0004A
:104BD000CD2BCF70C093E900FF91EF91DF91CF9182
:104BE000BF91AF919F918F917F916F915F914F9105
:104BF0003F912F910F900FBE0F901F9018951F930C
:104C0000CF93DF93CDB7DEB7AA970FB6F894DEBF88
:104C10000FBECDBF86EA92E0FC0101962091F10023
:104C2000208322E08E3A9207B9F70E948F2180916B
:104C3000E80083FF16C18091A6029091A7029A30E6
:104C400008F00FC1E92FF0E0EA5BF64D0C94BE28A6
:104C5000803881F0823809F004C18091AA028F70F7
:104C60008093E9008091EB0085FB882780F9109202
:104C7000E90006C08091A2029091A3029111826086
:104C80009091E800977F9093E8008093F100109254
:104C9000F1008091E8008E77E0C0882309F4CEC04F
:104CA000823009F0DEC08091A8028111D1C08091CC
:104CB000AA028F7009F4D5C08093E9002091EB001F
:104CC00020FFC6C0933031F48091EB008062809366
:104CD000EB00BEC09091EB0090619093EB0021E05F
:104CE00030E001C0220F8A95EAF72093EA00109283
:104CF000EA008091EB008860EACF8111B2C0109188
:104D0000A8021F778091E3008078812B8093E300D5
:104D10008091E800877F8093E8000E941D248091A5
:104D2000E80080FFFCCF8091E30080688093E3007F
:104D300082E0111183E08093A50293C080588230F5
:104D400008F08FC08091A8029091A9028C3D23E0C9
:104D50009207A1F583E08A838AE289834FB7F894AA
:104D6000DE01139620E03EE051E2E32FF0E05093A5
:104D70005700E49120FF03C0E295EF703F5FEF70B2
:104D80008E2F90E0EA30C0F0C7968D939D932F5FF1
:104D9000243159F74FBF8091E800877F8093E80066
:104DA0006AE270E0CE0101960E9434238091E8000F
:104DB0008B778093E80055C0C096E7CFAE014F5F78
:104DC0005F4F6091AA020E947922BC01892B09F4ED
:104DD00048C08091E800877F8093E80089819A81AC
:104DE0000E948E23E3CF8038E1F58091E800877F31
:104DF0008093E8008091A1028093F1004ACF811155
:104E000030C09091A802923060F58091E800877FD1
:104E10008093E8009093A1020E941D248091A1023A
:104E2000882311F084E005C08091E30087FDFACF6C
:104E300081E08093A5020E947B2113C08091A8028B
:104E4000813079F481E0933009F080E08093A3020F
:104E50001092E9008091E800877F8093E8000E942B
:104E60001D248091E80083FF0AC08091E800877FBD
:104E70008093E8008091EB0080628093EB00AA961B
:104E80000FB6F894DEBF0FBECDBFDF91CF911F915B
:104E900008950895CF938091A5028823A1F0C09131
:104EA000E900CF709091EC00892F817090FD80E82F
:104EB000C82B1092E9008091E80083FD0E94FF2535
:104EC000CF70C093E900CF9108950E946C27689439
:104ED000B1110C94FB2708950E94E02788F09F579A
:104EE00098F0B92F9927B751B0F0E1F0660F771F0E
:104EF000881F991F1AF0BA95C9F714C0B13091F004
:104F00000E94FA27B1E008950C94FA27672F782FB2
:104F10008827B85F39F0B93FCCF3869577956795C8
:104F2000B395D9F73EF490958095709561957F4F34
:104F30008F4F9F4F0895E89409C097FB3EF49095DA
:104F40008095709561957F4F8F4F9F4F9923A9F062
:104F5000F92F96E9BB279395F695879577956795F1
:104F6000B795F111F8CFFAF4BB0F11F460FF1BC035
:104F70006F5F7F4F8F4F9F4F16C0882311F096E9C8
:104F800011C0772321F09EE8872F762F05C0662376
:104F900071F096E8862F70E060E02AF09A95660F2F
:104FA000771F881FDAF7880F9695879597F90895E8
:104FB00057FD9058440F551F59F05F3F71F04795CA
:104FC000880F97FB991F61F09F3F79F087950895AF
:104FD000121613061406551FF2CF4695F1DF08C0CE
:104FE000161617061806991FF1CF869571056105EB
:104FF00008940895E894BB2766277727CB0197F993
:1050000008950E9414280C9485280E94772838F06F
:105010000E947E2820F0952311F00C946E280C94A9
:10502000742811240C94FB270E94D82770F3959FB5
:10503000C1F3950F50E0551F629FF001729FBB278F
:10504000F00DB11D639FAA27F00DB11DAA1F649F2B
:105050006627B00DA11D661F829F2227B00DA11DDE
:10506000621F739FB00DA11D621F839FA00D611D64
:10507000221F749F3327A00D611D231F849F600D85
:10508000211D822F762F6A2F11249F5750409AF0AE
:10509000F1F088234AF0EE0FFF1FBB1F661F771F3A
:1050A000881F91505040A9F79E3F510580F00C9405
:1050B0006E280C94FB275F3FE4F3983ED4F386956B
:1050C00077956795B795F795E7959F5FC1F7FE2BA5
:1050D000880F911D9695879597F9089597F99F6781
:1050E00080E870E060E008959FEF80EC0895002470
:1050F0000A941616170618060906089500240A943D
:1051000012161306140605060895092E0394000CC2
:1051100011F4882352F0BB0F40F4BF2B11F460FF51
:1051200004C06F5F7F4F8F4F9F4F0895AA1BBB1B1B
:1051300051E107C0AA1FBB1FA617B70710F0A61B97
:10514000B70B881F991F5A95A9F780959095BC01B8
:10515000CD01089597FB072E16F4009407D077FD34
:1051600009D00E94962807FC05D03EF490958195C1
:105170009F4F0895709561957F4F0895EE0FFF1F23
:105180000590F491E02D0994F999FECF92BD81BD6F
:10519000F89A992780B50895A6E1B0E044E050E080
:1051A0000C94FE28A8E1B0E042E050E00C94FE2808
:1051B000262FF999FECF92BD81BDF89A019700B4D0
:1051C000021639F01FBA20BD0FB6F894FA9AF99A70
:1051D0000FBE08950396272F0E94D9280E94D82831
:1051E000252F0E94D928242F0C94D9280196272FE7
:1051F0000E94D9280C94D828DC01CB01FC01F99934
:10520000FECF06C0F2BDE1BDF89A319600B40D9212
:1052100041505040B8F70895F894FFCF94049A0491
:105220009F04A404A904AE04B304B804BD04C204DA
:10523000C704CC04D10495059A059F05A405A905CA
:10524000AE05B3050B063006B805C405C805CC0588
:10525000D005D405D805DC05E005E405E805EC0536
:10526000F005F405F805FC0500060406EF11EF1142
:10527000471247128B12A7121F121F12B2121F12CF
:105280007A137A13E5131F121F12EE1328264D26E8
:1052900031274D2631277D269E263127F326FF26EE
:1052A000FFCB012808140A321E83201321F020B9F5
:1052B00020862001F567373234C6F0969236404D8D
:1052C00036393D08F007BA07810714072D0746074E
:0252D0005F0776
:00000001FF
